{
  "contractName": "SyndicateLoan",
  "abi": [
    {
      "inputs": [],
      "stateMutability": "nonpayable",
      "type": "constructor"
    },
    {
      "anonymous": false,
      "inputs": [],
      "name": "votingCompleted",
      "type": "event"
    },
    {
      "inputs": [],
      "name": "adminBank",
      "outputs": [
        {
          "internalType": "string",
          "name": "name",
          "type": "string"
        },
        {
          "internalType": "bool",
          "name": "isAdmin",
          "type": "bool"
        },
        {
          "internalType": "bool",
          "name": "isParticipating",
          "type": "bool"
        },
        {
          "internalType": "uint256",
          "name": "riskLimit",
          "type": "uint256"
        },
        {
          "internalType": "address",
          "name": "addr",
          "type": "address"
        },
        {
          "internalType": "uint256",
          "name": "weight",
          "type": "uint256"
        },
        {
          "internalType": "bool",
          "name": "voted",
          "type": "bool"
        },
        {
          "internalType": "uint256",
          "name": "vote",
          "type": "uint256"
        }
      ],
      "stateMutability": "view",
      "type": "function",
      "constant": true
    },
    {
      "inputs": [
        {
          "internalType": "address",
          "name": "",
          "type": "address"
        }
      ],
      "name": "bankDetails",
      "outputs": [
        {
          "internalType": "string",
          "name": "name",
          "type": "string"
        },
        {
          "internalType": "bool",
          "name": "isAdmin",
          "type": "bool"
        },
        {
          "internalType": "bool",
          "name": "isParticipating",
          "type": "bool"
        },
        {
          "internalType": "uint256",
          "name": "riskLimit",
          "type": "uint256"
        },
        {
          "internalType": "address",
          "name": "addr",
          "type": "address"
        },
        {
          "internalType": "uint256",
          "name": "weight",
          "type": "uint256"
        },
        {
          "internalType": "bool",
          "name": "voted",
          "type": "bool"
        },
        {
          "internalType": "uint256",
          "name": "vote",
          "type": "uint256"
        }
      ],
      "stateMutability": "view",
      "type": "function",
      "constant": true
    },
    {
      "inputs": [
        {
          "internalType": "uint256",
          "name": "",
          "type": "uint256"
        }
      ],
      "name": "banks",
      "outputs": [
        {
          "internalType": "string",
          "name": "name",
          "type": "string"
        },
        {
          "internalType": "bool",
          "name": "isAdmin",
          "type": "bool"
        },
        {
          "internalType": "bool",
          "name": "isParticipating",
          "type": "bool"
        },
        {
          "internalType": "uint256",
          "name": "riskLimit",
          "type": "uint256"
        },
        {
          "internalType": "address",
          "name": "addr",
          "type": "address"
        },
        {
          "internalType": "uint256",
          "name": "weight",
          "type": "uint256"
        },
        {
          "internalType": "bool",
          "name": "voted",
          "type": "bool"
        },
        {
          "internalType": "uint256",
          "name": "vote",
          "type": "uint256"
        }
      ],
      "stateMutability": "view",
      "type": "function",
      "constant": true
    },
    {
      "inputs": [],
      "name": "borrower",
      "outputs": [
        {
          "internalType": "uint256",
          "name": "loanAmount",
          "type": "uint256"
        },
        {
          "internalType": "address",
          "name": "addr",
          "type": "address"
        }
      ],
      "stateMutability": "view",
      "type": "function",
      "constant": true
    },
    {
      "inputs": [
        {
          "internalType": "uint256",
          "name": "",
          "type": "uint256"
        }
      ],
      "name": "proposals",
      "outputs": [
        {
          "internalType": "string",
          "name": "name",
          "type": "string"
        },
        {
          "internalType": "uint256",
          "name": "interest",
          "type": "uint256"
        },
        {
          "internalType": "uint256",
          "name": "tenure",
          "type": "uint256"
        },
        {
          "internalType": "uint256",
          "name": "voteCount",
          "type": "uint256"
        },
        {
          "internalType": "address",
          "name": "addr",
          "type": "address"
        }
      ],
      "stateMutability": "view",
      "type": "function",
      "constant": true
    },
    {
      "inputs": [],
      "name": "stage",
      "outputs": [
        {
          "internalType": "enum SyndicateLoan.Stage",
          "name": "",
          "type": "uint8"
        }
      ],
      "stateMutability": "view",
      "type": "function",
      "constant": true
    },
    {
      "inputs": [],
      "name": "temp1",
      "outputs": [
        {
          "internalType": "string",
          "name": "name",
          "type": "string"
        },
        {
          "internalType": "bool",
          "name": "isAdmin",
          "type": "bool"
        },
        {
          "internalType": "bool",
          "name": "isParticipating",
          "type": "bool"
        },
        {
          "internalType": "uint256",
          "name": "riskLimit",
          "type": "uint256"
        },
        {
          "internalType": "address",
          "name": "addr",
          "type": "address"
        },
        {
          "internalType": "uint256",
          "name": "weight",
          "type": "uint256"
        },
        {
          "internalType": "bool",
          "name": "voted",
          "type": "bool"
        },
        {
          "internalType": "uint256",
          "name": "vote",
          "type": "uint256"
        }
      ],
      "stateMutability": "view",
      "type": "function",
      "constant": true
    },
    {
      "inputs": [
        {
          "internalType": "uint256",
          "name": "_loanAmount",
          "type": "uint256"
        },
        {
          "internalType": "address",
          "name": "_adminBankAddress",
          "type": "address"
        }
      ],
      "name": "setInitials",
      "outputs": [],
      "stateMutability": "nonpayable",
      "type": "function"
    },
    {
      "inputs": [
        {
          "internalType": "string",
          "name": "_name",
          "type": "string"
        },
        {
          "internalType": "uint256",
          "name": "_riskLimit",
          "type": "uint256"
        },
        {
          "internalType": "uint256",
          "name": "_tenure",
          "type": "uint256"
        },
        {
          "internalType": "uint256",
          "name": "_interest",
          "type": "uint256"
        }
      ],
      "name": "setAdminRiskLimit",
      "outputs": [],
      "stateMutability": "nonpayable",
      "type": "function"
    },
    {
      "inputs": [
        {
          "internalType": "string",
          "name": "_name",
          "type": "string"
        },
        {
          "internalType": "uint256",
          "name": "_riskLimit",
          "type": "uint256"
        },
        {
          "internalType": "uint256",
          "name": "_tenure",
          "type": "uint256"
        },
        {
          "internalType": "uint256",
          "name": "_interest",
          "type": "uint256"
        }
      ],
      "name": "registerBank",
      "outputs": [],
      "stateMutability": "nonpayable",
      "type": "function"
    },
    {
      "inputs": [],
      "name": "instantiateLoan",
      "outputs": [],
      "stateMutability": "payable",
      "type": "function",
      "payable": true
    },
    {
      "inputs": [],
      "name": "getBorrower",
      "outputs": [
        {
          "components": [
            {
              "internalType": "uint256",
              "name": "loanAmount",
              "type": "uint256"
            },
            {
              "internalType": "address",
              "name": "addr",
              "type": "address"
            }
          ],
          "internalType": "struct SyndicateLoan.Borrower",
          "name": "",
          "type": "tuple"
        }
      ],
      "stateMutability": "view",
      "type": "function",
      "constant": true
    },
    {
      "inputs": [],
      "name": "getStage",
      "outputs": [
        {
          "internalType": "enum SyndicateLoan.Stage",
          "name": "",
          "type": "uint8"
        }
      ],
      "stateMutability": "view",
      "type": "function",
      "constant": true
    },
    {
      "inputs": [],
      "name": "getAdminBank",
      "outputs": [
        {
          "components": [
            {
              "internalType": "string",
              "name": "name",
              "type": "string"
            },
            {
              "internalType": "bool",
              "name": "isAdmin",
              "type": "bool"
            },
            {
              "internalType": "bool",
              "name": "isParticipating",
              "type": "bool"
            },
            {
              "internalType": "uint256",
              "name": "riskLimit",
              "type": "uint256"
            },
            {
              "internalType": "address",
              "name": "addr",
              "type": "address"
            },
            {
              "internalType": "uint256",
              "name": "weight",
              "type": "uint256"
            },
            {
              "internalType": "bool",
              "name": "voted",
              "type": "bool"
            },
            {
              "internalType": "uint256",
              "name": "vote",
              "type": "uint256"
            }
          ],
          "internalType": "struct SyndicateLoan.Bank",
          "name": "",
          "type": "tuple"
        }
      ],
      "stateMutability": "view",
      "type": "function",
      "constant": true
    },
    {
      "inputs": [],
      "name": "getAllBankDetails",
      "outputs": [
        {
          "components": [
            {
              "internalType": "string",
              "name": "name",
              "type": "string"
            },
            {
              "internalType": "bool",
              "name": "isAdmin",
              "type": "bool"
            },
            {
              "internalType": "bool",
              "name": "isParticipating",
              "type": "bool"
            },
            {
              "internalType": "uint256",
              "name": "riskLimit",
              "type": "uint256"
            },
            {
              "internalType": "address",
              "name": "addr",
              "type": "address"
            },
            {
              "internalType": "uint256",
              "name": "weight",
              "type": "uint256"
            },
            {
              "internalType": "bool",
              "name": "voted",
              "type": "bool"
            },
            {
              "internalType": "uint256",
              "name": "vote",
              "type": "uint256"
            }
          ],
          "internalType": "struct SyndicateLoan.Bank[]",
          "name": "",
          "type": "tuple[]"
        }
      ],
      "stateMutability": "view",
      "type": "function",
      "constant": true
    },
    {
      "inputs": [],
      "name": "getProposal",
      "outputs": [
        {
          "components": [
            {
              "internalType": "string",
              "name": "name",
              "type": "string"
            },
            {
              "internalType": "uint256",
              "name": "interest",
              "type": "uint256"
            },
            {
              "internalType": "uint256",
              "name": "tenure",
              "type": "uint256"
            },
            {
              "internalType": "uint256",
              "name": "voteCount",
              "type": "uint256"
            },
            {
              "internalType": "address",
              "name": "addr",
              "type": "address"
            }
          ],
          "internalType": "struct SyndicateLoan.Proposal[]",
          "name": "",
          "type": "tuple[]"
        }
      ],
      "stateMutability": "view",
      "type": "function",
      "constant": true
    },
    {
      "inputs": [
        {
          "internalType": "uint256",
          "name": "toProposal",
          "type": "uint256"
        }
      ],
      "name": "vote",
      "outputs": [],
      "stateMutability": "nonpayable",
      "type": "function"
    },
    {
      "inputs": [],
      "name": "winningProposal",
      "outputs": [],
      "stateMutability": "nonpayable",
      "type": "function"
    },
    {
      "inputs": [],
      "name": "getWinningProposal",
      "outputs": [
        {
          "internalType": "uint256",
          "name": "",
          "type": "uint256"
        }
      ],
      "stateMutability": "view",
      "type": "function",
      "constant": true
    }
  ],
  "bytecode": "0x60806040526000601260006101000a81548160ff021916908360048111156200002d576200002c620000d6565b5b02179055506000601455600060165560006017553480156200004e57600080fd5b506040518060400160405280600081526020013373ffffffffffffffffffffffffffffffffffffffff16815250600080820151816000015560208201518160010160006101000a81548173ffffffffffffffffffffffffffffffffffffffff021916908373ffffffffffffffffffffffffffffffffffffffff16021790555090505062000105565b7f4e487b7100000000000000000000000000000000000000000000000000000000600052602160045260246000fd5b61352f80620001156000396000f3fe6080604052600436106101135760003560e01c80635e49e82f116100a0578063b9e2bea011610064578063b9e2bea01461038c578063c040e6b8146103b7578063cab43086146103e2578063f54f0e561461040d578063fcaa76641461043857610113565b80635e49e82f146102c3578063609ff1bd146102f55780636b47c7fb1461030c5780637df1f1b914610335578063a51346201461036157610113565b8063186d95ab116100e7578063186d95ab146101ef5780631cb0c3e7146102185780631fa7d37d14610243578063249d03871461024d57806326d023f31461029157610113565b806285ae2b146101185780630121b93f1461015c578063013cf08b146101855780630f663a0d146101c6575b600080fd5b34801561012457600080fd5b5061013f600480360381019061013a9190612949565b610463565b604051610153989796959493929190612a7a565b60405180910390f35b34801561016857600080fd5b50610183600480360381019061017e9190612949565b61058a565b005b34801561019157600080fd5b506101ac60048036038101906101a79190612949565b6107e9565b6040516101bd959493929190612aff565b60405180910390f35b3480156101d257600080fd5b506101ed60048036038101906101e89190612c8e565b6108d7565b005b3480156101fb57600080fd5b5061021660048036038101906102119190612d3d565b610d51565b005b34801561022457600080fd5b5061022d610f6b565b60405161023a9190612dca565b60405180910390f35b61024b610fe5565b005b34801561025957600080fd5b50610274600480360381019061026f9190612de5565b61114d565b604051610288989796959493929190612a7a565b60405180910390f35b34801561029d57600080fd5b506102a6611264565b6040516102ba989796959493929190612a7a565b60405180910390f35b3480156102cf57600080fd5b506102d8611369565b6040516102ec989796959493929190612a7a565b60405180910390f35b34801561030157600080fd5b5061030a61146e565b005b34801561031857600080fd5b50610333600480360381019061032e9190612c8e565b61165d565b005b34801561034157600080fd5b5061034a611b1c565b604051610358929190612e12565b60405180910390f35b34801561036d57600080fd5b50610376611b4e565b6040516103839190612e3b565b60405180910390f35b34801561039857600080fd5b506103a1611bb5565b6040516103ae9190612fd8565b60405180910390f35b3480156103c357600080fd5b506103cc611d8a565b6040516103d99190613071565b60405180910390f35b3480156103ee57600080fd5b506103f7611d9d565b604051610404919061314b565b60405180910390f35b34801561041957600080fd5b50610422611f0f565b60405161042f91906132df565b60405180910390f35b34801561044457600080fd5b5061044d612136565b60405161045a9190613071565b60405180910390f35b6010818154811061047357600080fd5b906000526020600020906007020160009150905080600001805461049690613330565b80601f01602080910402602001604051908101604052809291908181526020018280546104c290613330565b801561050f5780601f106104e45761010080835404028352916020019161050f565b820191906000526020600020905b8154815290600101906020018083116104f257829003601f168201915b5050505050908060010160009054906101000a900460ff16908060010160019054906101000a900460ff16908060020154908060030160009054906101000a900473ffffffffffffffffffffffffffffffffffffffff16908060040154908060050160009054906101000a900460ff16908060060154905088565b600280600481111561059f5761059e612ffa565b5b601260009054906101000a900460ff1660048111156105c1576105c0612ffa565b5b146105cb57600080fd5b6000601160003373ffffffffffffffffffffffffffffffffffffffff1673ffffffffffffffffffffffffffffffffffffffff16815260200190815260200160002090508060050160009054906101000a900460ff168061063057506013805490508310155b806106ab57503373ffffffffffffffffffffffffffffffffffffffff166013848154811061066157610660613362565b5b906000526020600020906005020160040160009054906101000a900473ffffffffffffffffffffffffffffffffffffffff1673ffffffffffffffffffffffffffffffffffffffff16145b156106b557600080fd5b60018160050160006101000a81548160ff0219169083151502179055508281600601819055508060040154601384815481106106f4576106f3613362565b5b9060005260206000209060050201600301600082825461071491906133c0565b92505081905550600260030160009054906101000a900473ffffffffffffffffffffffffffffffffffffffff1673ffffffffffffffffffffffffffffffffffffffff163373ffffffffffffffffffffffffffffffffffffffff16141561077f57826002600601819055505b61078761214d565b156107e4576003601260006101000a81548160ff021916908360048111156107b2576107b1612ffa565b5b02179055507f6ac0c89219f0135e3a87cecdf1851abced71da933a0a00e1eada0ef03538235160405160405180910390a15b505050565b601381815481106107f957600080fd5b906000526020600020906005020160009150905080600001805461081c90613330565b80601f016020809104026020016040519081016040528092919081815260200182805461084890613330565b80156108955780601f1061086a57610100808354040283529160200191610895565b820191906000526020600020905b81548152906001019060200180831161087857829003601f168201915b5050505050908060010154908060020154908060030154908060040160009054906101000a900473ffffffffffffffffffffffffffffffffffffffff16905085565b601160003373ffffffffffffffffffffffffffffffffffffffff1673ffffffffffffffffffffffffffffffffffffffff16815260200190815260200160002060050160009054906101000a900460ff161561093157600080fd5b60106040518061010001604052808681526020016000151581526020016000151581526020018581526020013373ffffffffffffffffffffffffffffffffffffffff168152602001600181526020016000151581526020016000815250908060018154018082558091505060019003906000526020600020906007020160009091909190915060008201518160000190805190602001906109d39291906126f9565b5060208201518160010160006101000a81548160ff02191690831515021790555060408201518160010160016101000a81548160ff0219169083151502179055506060820151816002015560808201518160030160006101000a81548173ffffffffffffffffffffffffffffffffffffffff021916908373ffffffffffffffffffffffffffffffffffffffff16021790555060a0820151816004015560c08201518160050160006101000a81548160ff02191690831515021790555060e082015181600601555050601060165481548110610ab157610ab0613362565b5b9060005260206000209060070201601160003373ffffffffffffffffffffffffffffffffffffffff1673ffffffffffffffffffffffffffffffffffffffff1681526020019081526020016000206000820181600001908054610b1290613330565b610b1d92919061277f565b506001820160009054906101000a900460ff168160010160006101000a81548160ff0219169083151502179055506001820160019054906101000a900460ff168160010160016101000a81548160ff021916908315150217905550600282015481600201556003820160009054906101000a900473ffffffffffffffffffffffffffffffffffffffff168160030160006101000a81548173ffffffffffffffffffffffffffffffffffffffff021916908373ffffffffffffffffffffffffffffffffffffffff160217905550600482015481600401556005820160009054906101000a900460ff168160050160006101000a81548160ff0219169083151502179055506006820154816006015590505060136040518060a00160405280868152602001838152602001848152602001600081526020013373ffffffffffffffffffffffffffffffffffffffff1681525090806001815401808255809150506001900390600052602060002090600502016000909190919091506000820151816000019080519060200190610cb29291906126f9565b5060208201518160010155604082015181600201556060820151816003015560808201518160040160006101000a81548173ffffffffffffffffffffffffffffffffffffffff021916908373ffffffffffffffffffffffffffffffffffffffff160217905550505060166000815480929190610d2d90613416565b91905055508260176000828254610d4491906133c0565b9250508190555050505050565b600060010160009054906101000a900473ffffffffffffffffffffffffffffffffffffffff1673ffffffffffffffffffffffffffffffffffffffff163373ffffffffffffffffffffffffffffffffffffffff1614610dae57600080fd5b600060010160009054906101000a900473ffffffffffffffffffffffffffffffffffffffff1673ffffffffffffffffffffffffffffffffffffffff168173ffffffffffffffffffffffffffffffffffffffff161415610e0c57600080fd5b604051806101000160405280604051806020016040528060008152508152602001600115158152602001600115158152602001600081526020018273ffffffffffffffffffffffffffffffffffffffff16815260200160028152602001600015158152602001600081525060026000820151816000019080519060200190610e959291906126f9565b5060208201518160010160006101000a81548160ff02191690831515021790555060408201518160010160016101000a81548160ff0219169083151502179055506060820151816002015560808201518160030160006101000a81548173ffffffffffffffffffffffffffffffffffffffff021916908373ffffffffffffffffffffffffffffffffffffffff16021790555060a0820151816004015560c08201518160050160006101000a81548160ff02191690831515021790555060e082015181600601559050508160008001819055505050565b610f7361280c565b6000604051806040016040529081600082015481526020016001820160009054906101000a900473ffffffffffffffffffffffffffffffffffffffff1673ffffffffffffffffffffffffffffffffffffffff1673ffffffffffffffffffffffffffffffffffffffff1681525050905090565b600060010160009054906101000a900473ffffffffffffffffffffffffffffffffffffffff1673ffffffffffffffffffffffffffffffffffffffff163373ffffffffffffffffffffffffffffffffffffffff161461104257600080fd5b6000800154601754108061105e57506002800154600080015411155b1561106857600080fd5b61107061221e565b6000600280015490506000600190505b60165481101561111e576001601082815481106110a05761109f613362565b5b906000526020600020906007020160010160016101000a81548160ff021916908315150217905550601081815481106110dc576110db613362565b5b906000526020600020906007020160020154826110f991906133c0565b91506000800154821061110b5761111e565b808061111690613416565b915050611080565b506002601260006101000a81548160ff0219169083600481111561114557611144612ffa565b5b021790555050565b601160205280600052604060002060009150905080600001805461117090613330565b80601f016020809104026020016040519081016040528092919081815260200182805461119c90613330565b80156111e95780601f106111be576101008083540402835291602001916111e9565b820191906000526020600020905b8154815290600101906020018083116111cc57829003601f168201915b5050505050908060010160009054906101000a900460ff16908060010160019054906101000a900460ff16908060020154908060030160009054906101000a900473ffffffffffffffffffffffffffffffffffffffff16908060040154908060050160009054906101000a900460ff16908060060154905088565b600980600001805461127590613330565b80601f01602080910402602001604051908101604052809291908181526020018280546112a190613330565b80156112ee5780601f106112c3576101008083540402835291602001916112ee565b820191906000526020600020905b8154815290600101906020018083116112d157829003601f168201915b5050505050908060010160009054906101000a900460ff16908060010160019054906101000a900460ff16908060020154908060030160009054906101000a900473ffffffffffffffffffffffffffffffffffffffff16908060040154908060050160009054906101000a900460ff16908060060154905088565b600280600001805461137a90613330565b80601f01602080910402602001604051908101604052809291908181526020018280546113a690613330565b80156113f35780601f106113c8576101008083540402835291602001916113f3565b820191906000526020600020905b8154815290600101906020018083116113d657829003601f168201915b5050505050908060010160009054906101000a900460ff16908060010160019054906101000a900460ff16908060020154908060030160009054906101000a900473ffffffffffffffffffffffffffffffffffffffff16908060040154908060050160009054906101000a900460ff16908060060154905088565b600380600481111561148357611482612ffa565b5b601260009054906101000a900460ff1660048111156114a5576114a4612ffa565b5b146114af57600080fd5b600260030160009054906101000a900473ffffffffffffffffffffffffffffffffffffffff1673ffffffffffffffffffffffffffffffffffffffff163373ffffffffffffffffffffffffffffffffffffffff161461150c57600080fd5b60005b6013805490508160ff16101561161b5760145460138260ff168154811061153957611538613362565b5b906000526020600020906005020160030154111561158f5760138160ff168154811061156857611567613362565b5b9060005260206000209060050201600301546014819055508060ff16601581905550611608565b60145460138260ff16815481106115a9576115a8613362565b5b9060005260206000209060050201600301541480156115f15750600060138260ff16815481106115dc576115db613362565b5b90600052602060002090600502016003015414155b156116075760026006015460158190555061161b565b5b80806116139061346c565b91505061150f565b5060006014541161162f5761162e613496565b5b6004601260006101000a81548160ff0219169083600481111561165557611654612ffa565b5b021790555050565b600260030160009054906101000a900473ffffffffffffffffffffffffffffffffffffffff1673ffffffffffffffffffffffffffffffffffffffff163373ffffffffffffffffffffffffffffffffffffffff16146116ba57600080fd5b82600280018190555083600260000190805190602001906116dc9291906126f9565b50601060029080600181540180825580915050600190039060005260206000209060070201600090919091909150600082018160000190805461171e90613330565b61172992919061277f565b506001820160009054906101000a900460ff168160010160006101000a81548160ff0219169083151502179055506001820160019054906101000a900460ff168160010160016101000a81548160ff021916908315150217905550600282015481600201556003820160009054906101000a900473ffffffffffffffffffffffffffffffffffffffff168160030160006101000a81548173ffffffffffffffffffffffffffffffffffffffff021916908373ffffffffffffffffffffffffffffffffffffffff160217905550600482015481600401556005820160009054906101000a900460ff168160050160006101000a81548160ff02191690831515021790555060068201548160060155505060136040518060a00160405280868152602001838152602001848152602001600081526020013373ffffffffffffffffffffffffffffffffffffffff16815250908060018154018082558091505060019003906000526020600020906005020160009091909190915060008201518160000190805190602001906118bd9291906126f9565b5060208201518160010155604082015181600201556060820151816003015560808201518160040160006101000a81548173ffffffffffffffffffffffffffffffffffffffff021916908373ffffffffffffffffffffffffffffffffffffffff16021790555050506016600081548092919061193890613416565b9190505550600260116000600260030160009054906101000a900473ffffffffffffffffffffffffffffffffffffffff1673ffffffffffffffffffffffffffffffffffffffff1673ffffffffffffffffffffffffffffffffffffffff16815260200190815260200160002060008201816000019080546119b790613330565b6119c292919061277f565b506001820160009054906101000a900460ff168160010160006101000a81548160ff0219169083151502179055506001820160019054906101000a900460ff168160010160016101000a81548160ff021916908315150217905550600282015481600201556003820160009054906101000a900473ffffffffffffffffffffffffffffffffffffffff168160030160006101000a81548173ffffffffffffffffffffffffffffffffffffffff021916908373ffffffffffffffffffffffffffffffffffffffff160217905550600482015481600401556005820160009054906101000a900460ff168160050160006101000a81548160ff021916908315150217905550600682015481600601559050508260176000828254611ae491906133c0565b925050819055506001601260006101000a81548160ff02191690836004811115611b1157611b10612ffa565b5b021790555050505050565b60008060000154908060010160009054906101000a900473ffffffffffffffffffffffffffffffffffffffff16905082565b6000600260030160009054906101000a900473ffffffffffffffffffffffffffffffffffffffff1673ffffffffffffffffffffffffffffffffffffffff163373ffffffffffffffffffffffffffffffffffffffff1614611bad57600080fd5b601554905090565b6060600060165467ffffffffffffffff811115611bd557611bd4612b63565b5b604051908082528060200260200182016040528015611c0e57816020015b611bfb61283c565b815260200190600190039081611bf35790505b50905060005b601654811015611d825760138181548110611c3257611c31613362565b5b90600052602060002090600502016040518060a0016040529081600082018054611c5b90613330565b80601f0160208091040260200160405190810160405280929190818152602001828054611c8790613330565b8015611cd45780601f10611ca957610100808354040283529160200191611cd4565b820191906000526020600020905b815481529060010190602001808311611cb757829003601f168201915b505050505081526020016001820154815260200160028201548152602001600382015481526020016004820160009054906101000a900473ffffffffffffffffffffffffffffffffffffffff1673ffffffffffffffffffffffffffffffffffffffff1673ffffffffffffffffffffffffffffffffffffffff1681525050828281518110611d6457611d63613362565b5b60200260200101819052508080611d7a90613416565b915050611c14565b508091505090565b601260009054906101000a900460ff1681565b611da5612881565b600260405180610100016040529081600082018054611dc390613330565b80601f0160208091040260200160405190810160405280929190818152602001828054611def90613330565b8015611e3c5780601f10611e1157610100808354040283529160200191611e3c565b820191906000526020600020905b815481529060010190602001808311611e1f57829003601f168201915b505050505081526020016001820160009054906101000a900460ff161515151581526020016001820160019054906101000a900460ff16151515158152602001600282015481526020016003820160009054906101000a900473ffffffffffffffffffffffffffffffffffffffff1673ffffffffffffffffffffffffffffffffffffffff1673ffffffffffffffffffffffffffffffffffffffff168152602001600482015481526020016005820160009054906101000a900460ff16151515158152602001600682015481525050905090565b6060600060165467ffffffffffffffff811115611f2f57611f2e612b63565b5b604051908082528060200260200182016040528015611f6857816020015b611f55612881565b815260200190600190039081611f4d5790505b50905060005b60165481101561212e5760108181548110611f8c57611f8b613362565b5b906000526020600020906007020160405180610100016040529081600082018054611fb690613330565b80601f0160208091040260200160405190810160405280929190818152602001828054611fe290613330565b801561202f5780601f106120045761010080835404028352916020019161202f565b820191906000526020600020905b81548152906001019060200180831161201257829003601f168201915b505050505081526020016001820160009054906101000a900460ff161515151581526020016001820160019054906101000a900460ff16151515158152602001600282015481526020016003820160009054906101000a900473ffffffffffffffffffffffffffffffffffffffff1673ffffffffffffffffffffffffffffffffffffffff1673ffffffffffffffffffffffffffffffffffffffff168152602001600482015481526020016005820160009054906101000a900460ff161515151581526020016006820154815250508282815181106121105761210f613362565b5b6020026020010181905250808061212690613416565b915050611f6e565b508091505090565b6000601260009054906101000a900460ff16905090565b600080600090505b60165481101561221557601160006010838154811061217757612176613362565b5b906000526020600020906007020160030160009054906101000a900473ffffffffffffffffffffffffffffffffffffffff1673ffffffffffffffffffffffffffffffffffffffff1673ffffffffffffffffffffffffffffffffffffffff16815260200190815260200160002060050160009054906101000a900460ff1661220257600091505061221b565b808061220d90613416565b915050612155565b50600190505b90565b6000600190505b600160165461223491906134c5565b8110156126f6576000600190505b60018260165461225291906134c5565b61225c91906134c5565b8110156126e2576010828154811061227757612276613362565b5b9060005260206000209060070201600201546010828154811061229d5761229c613362565b5b90600052602060002090600702016002015411156126cf57601081815481106122c9576122c8613362565b5b9060005260206000209060070201600960008201816000019080546122ed90613330565b6122f892919061277f565b506001820160009054906101000a900460ff168160010160006101000a81548160ff0219169083151502179055506001820160019054906101000a900460ff168160010160016101000a81548160ff021916908315150217905550600282015481600201556003820160009054906101000a900473ffffffffffffffffffffffffffffffffffffffff168160030160006101000a81548173ffffffffffffffffffffffffffffffffffffffff021916908373ffffffffffffffffffffffffffffffffffffffff160217905550600482015481600401556005820160009054906101000a900460ff168160050160006101000a81548160ff021916908315150217905550600682015481600601559050506010828154811061241c5761241b613362565b5b90600052602060002090600702016010828154811061243e5761243d613362565b5b9060005260206000209060070201600082018160000190805461246090613330565b61246b92919061277f565b506001820160009054906101000a900460ff168160010160006101000a81548160ff0219169083151502179055506001820160019054906101000a900460ff168160010160016101000a81548160ff021916908315150217905550600282015481600201556003820160009054906101000a900473ffffffffffffffffffffffffffffffffffffffff168160030160006101000a81548173ffffffffffffffffffffffffffffffffffffffff021916908373ffffffffffffffffffffffffffffffffffffffff160217905550600482015481600401556005820160009054906101000a900460ff168160050160006101000a81548160ff0219169083151502179055506006820154816006015590505060096010838154811061259157612590613362565b5b906000526020600020906007020160008201816000019080546125b390613330565b6125be92919061277f565b506001820160009054906101000a900460ff168160010160006101000a81548160ff0219169083151502179055506001820160019054906101000a900460ff168160010160016101000a81548160ff021916908315150217905550600282015481600201556003820160009054906101000a900473ffffffffffffffffffffffffffffffffffffffff168160030160006101000a81548173ffffffffffffffffffffffffffffffffffffffff021916908373ffffffffffffffffffffffffffffffffffffffff160217905550600482015481600401556005820160009054906101000a900460ff168160050160006101000a81548160ff021916908315150217905550600682015481600601559050505b80806126da90613416565b915050612242565b5080806126ee90613416565b915050612225565b50565b82805461270590613330565b90600052602060002090601f016020900481019282612727576000855561276e565b82601f1061274057805160ff191683800117855561276e565b8280016001018555821561276e579182015b8281111561276d578251825591602001919060010190612752565b5b50905061277b91906128e2565b5090565b82805461278b90613330565b90600052602060002090601f0160209004810192826127ad57600085556127fb565b82601f106127be57805485556127fb565b828001600101855582156127fb57600052602060002091601f016020900482015b828111156127fa5782548255916001019190600101906127df565b5b50905061280891906128e2565b5090565b604051806040016040528060008152602001600073ffffffffffffffffffffffffffffffffffffffff1681525090565b6040518060a0016040528060608152602001600081526020016000815260200160008152602001600073ffffffffffffffffffffffffffffffffffffffff1681525090565b6040518061010001604052806060815260200160001515815260200160001515815260200160008152602001600073ffffffffffffffffffffffffffffffffffffffff16815260200160008152602001600015158152602001600081525090565b5b808211156128fb5760008160009055506001016128e3565b5090565b6000604051905090565b600080fd5b600080fd5b6000819050919050565b61292681612913565b811461293157600080fd5b50565b6000813590506129438161291d565b92915050565b60006020828403121561295f5761295e612909565b5b600061296d84828501612934565b91505092915050565b600081519050919050565b600082825260208201905092915050565b60005b838110156129b0578082015181840152602081019050612995565b838111156129bf576000848401525b50505050565b6000601f19601f8301169050919050565b60006129e182612976565b6129eb8185612981565b93506129fb818560208601612992565b612a04816129c5565b840191505092915050565b60008115159050919050565b612a2481612a0f565b82525050565b612a3381612913565b82525050565b600073ffffffffffffffffffffffffffffffffffffffff82169050919050565b6000612a6482612a39565b9050919050565b612a7481612a59565b82525050565b6000610100820190508181036000830152612a95818b6129d6565b9050612aa4602083018a612a1b565b612ab16040830189612a1b565b612abe6060830188612a2a565b612acb6080830187612a6b565b612ad860a0830186612a2a565b612ae560c0830185612a1b565b612af260e0830184612a2a565b9998505050505050505050565b600060a0820190508181036000830152612b1981886129d6565b9050612b286020830187612a2a565b612b356040830186612a2a565b612b426060830185612a2a565b612b4f6080830184612a6b565b9695505050505050565b600080fd5b600080fd5b7f4e487b7100000000000000000000000000000000000000000000000000000000600052604160045260246000fd5b612b9b826129c5565b810181811067ffffffffffffffff82111715612bba57612bb9612b63565b5b80604052505050565b6000612bcd6128ff565b9050612bd98282612b92565b919050565b600067ffffffffffffffff821115612bf957612bf8612b63565b5b612c02826129c5565b9050602081019050919050565b82818337600083830152505050565b6000612c31612c2c84612bde565b612bc3565b905082815260208101848484011115612c4d57612c4c612b5e565b5b612c58848285612c0f565b509392505050565b600082601f830112612c7557612c74612b59565b5b8135612c85848260208601612c1e565b91505092915050565b60008060008060808587031215612ca857612ca7612909565b5b600085013567ffffffffffffffff811115612cc657612cc561290e565b5b612cd287828801612c60565b9450506020612ce387828801612934565b9350506040612cf487828801612934565b9250506060612d0587828801612934565b91505092959194509250565b612d1a81612a59565b8114612d2557600080fd5b50565b600081359050612d3781612d11565b92915050565b60008060408385031215612d5457612d53612909565b5b6000612d6285828601612934565b9250506020612d7385828601612d28565b9150509250929050565b612d8681612913565b82525050565b612d9581612a59565b82525050565b604082016000820151612db16000850182612d7d565b506020820151612dc46020850182612d8c565b50505050565b6000604082019050612ddf6000830184612d9b565b92915050565b600060208284031215612dfb57612dfa612909565b5b6000612e0984828501612d28565b91505092915050565b6000604082019050612e276000830185612a2a565b612e346020830184612a6b565b9392505050565b6000602082019050612e506000830184612a2a565b92915050565b600081519050919050565b600082825260208201905092915050565b6000819050602082019050919050565b600082825260208201905092915050565b6000612e9e82612976565b612ea88185612e82565b9350612eb8818560208601612992565b612ec1816129c5565b840191505092915050565b600060a0830160008301518482036000860152612ee98282612e93565b9150506020830151612efe6020860182612d7d565b506040830151612f116040860182612d7d565b506060830151612f246060860182612d7d565b506080830151612f376080860182612d8c565b508091505092915050565b6000612f4e8383612ecc565b905092915050565b6000602082019050919050565b6000612f6e82612e56565b612f788185612e61565b935083602082028501612f8a85612e72565b8060005b85811015612fc65784840389528151612fa78582612f42565b9450612fb283612f56565b925060208a01995050600181019050612f8e565b50829750879550505050505092915050565b60006020820190508181036000830152612ff28184612f63565b905092915050565b7f4e487b7100000000000000000000000000000000000000000000000000000000600052602160045260246000fd5b6005811061303a57613039612ffa565b5b50565b600081905061304b82613029565b919050565b600061305b8261303d565b9050919050565b61306b81613050565b82525050565b60006020820190506130866000830184613062565b92915050565b61309581612a0f565b82525050565b60006101008301600083015184820360008601526130b98282612e93565b91505060208301516130ce602086018261308c565b5060408301516130e1604086018261308c565b5060608301516130f46060860182612d7d565b5060808301516131076080860182612d8c565b5060a083015161311a60a0860182612d7d565b5060c083015161312d60c086018261308c565b5060e083015161314060e0860182612d7d565b508091505092915050565b60006020820190508181036000830152613165818461309b565b905092915050565b600081519050919050565b600082825260208201905092915050565b6000819050602082019050919050565b60006101008301600083015184820360008601526131b78282612e93565b91505060208301516131cc602086018261308c565b5060408301516131df604086018261308c565b5060608301516131f26060860182612d7d565b5060808301516132056080860182612d8c565b5060a083015161321860a0860182612d7d565b5060c083015161322b60c086018261308c565b5060e083015161323e60e0860182612d7d565b508091505092915050565b60006132558383613199565b905092915050565b6000602082019050919050565b60006132758261316d565b61327f8185613178565b93508360208202850161329185613189565b8060005b858110156132cd57848403895281516132ae8582613249565b94506132b98361325d565b925060208a01995050600181019050613295565b50829750879550505050505092915050565b600060208201905081810360008301526132f9818461326a565b905092915050565b7f4e487b7100000000000000000000000000000000000000000000000000000000600052602260045260246000fd5b6000600282049050600182168061334857607f821691505b6020821081141561335c5761335b613301565b5b50919050565b7f4e487b7100000000000000000000000000000000000000000000000000000000600052603260045260246000fd5b7f4e487b7100000000000000000000000000000000000000000000000000000000600052601160045260246000fd5b60006133cb82612913565b91506133d683612913565b9250827fffffffffffffffffffffffffffffffffffffffffffffffffffffffffffffffff0382111561340b5761340a613391565b5b828201905092915050565b600061342182612913565b91507fffffffffffffffffffffffffffffffffffffffffffffffffffffffffffffffff82141561345457613453613391565b5b600182019050919050565b600060ff82169050919050565b60006134778261345f565b915060ff82141561348b5761348a613391565b5b600182019050919050565b7f4e487b7100000000000000000000000000000000000000000000000000000000600052600160045260246000fd5b60006134d082612913565b91506134db83612913565b9250828210156134ee576134ed613391565b5b82820390509291505056fea264697066735822122067f2811002297be5df1f8e5e521e28036a6e8864892f269ed318eab0097e8c4564736f6c634300080a0033",
  "immutableReferences": {},
  "source": "pragma solidity >= 0.4.22 < 0.9.0;\n\ncontract SyndicateLoan {\n\n    struct Borrower {\n        uint256 loanAmount;\n        address addr;\n    }\n    \n    struct Bank {\n        string name;\n        bool isAdmin;\n        bool isParticipating;\n        uint256 riskLimit;\n        address addr;\n        uint weight;\n        bool voted;\n        uint256 vote;\n    }\n    \n    struct Proposal {\n        string name;\n        uint256 interest;\n        uint256 tenure;\n        uint256 voteCount;\n        address addr;\n    }\n\n    Borrower public borrower;\n    \n    Bank public adminBank;\n    Bank public temp1;\n    Bank[] public banks;\n    mapping(address => Bank) public bankDetails;\n    \n    enum Stage {Init,Reg, Vote, Done, Report}\n    Stage public stage = Stage.Init;\n    \n    Proposal[] public proposals;\n\n    uint256 winningVoteCount = 0;\n    uint256 _winningProposal;\n\n    event votingCompleted();\n    \n    //uint public startTime;\n    //modifiers\n   modifier validStage(Stage reqStage)\n    { require(stage == reqStage);\n      _;\n    }\n\n    uint counter = 0;\n    uint totalriskLimit = 0;\n\n    constructor () {\n        borrower = Borrower({loanAmount: 0, addr: msg.sender});\n    }\n\n    modifier onlyOwner {\n        require(msg.sender == borrower.addr);\n        _;\n    }\n    \n    modifier onlyAdmin {\n        require(msg.sender == adminBank.addr);\n        _;\n    }\n\n    function setInitials(uint _loanAmount, address _adminBankAddress) public onlyOwner{\n        if(_adminBankAddress == borrower.addr)\n            revert();\n        adminBank = Bank({\n            name: \"\",\n            isAdmin: true,\n            isParticipating: true, \n            riskLimit: 0, \n            addr: _adminBankAddress,\n            weight: 2,\n            voted: false,\n            vote: 0\n        });\n        borrower.loanAmount = _loanAmount;\n    }\n    \n    function setAdminRiskLimit(string memory _name, uint256 _riskLimit, uint256 _tenure, uint256 _interest) public onlyAdmin {\n        adminBank.riskLimit = _riskLimit;\n        adminBank.name = _name;\n        banks.push(adminBank);\n        proposals.push(Proposal({\n            name: _name,\n            interest: _interest,\n            tenure: _tenure,\n            voteCount: 0,\n            addr: msg.sender\n        })); \n        counter++;\n        bankDetails[adminBank.addr] = adminBank;\n        totalriskLimit += _riskLimit;\n        stage = Stage.Reg;\n        //startTime = block.timestamp;\n    }\n    \n    function registerBank(string memory _name, uint256 _riskLimit, uint256 _tenure, uint256 _interest) public {\n        if (bankDetails[msg.sender].voted) \n            revert();\n        banks.push(Bank({\n            name: _name,\n            isAdmin: false, \n            isParticipating: false, \n            riskLimit: _riskLimit, \n            addr: msg.sender,\n            weight: 1,\n            voted: false,\n            vote: 0\n        }));\n        bankDetails[msg.sender] = banks[counter];\n        proposals.push(Proposal({\n            name: _name,\n            interest: _interest,\n            tenure: _tenure,\n            voteCount: 0,\n            addr: msg.sender\n        })); \n        counter++;\n        totalriskLimit += _riskLimit;\n    }\n    \n    function instantiateLoan() public onlyOwner payable{\n        if(totalriskLimit < borrower.loanAmount || borrower.loanAmount <= adminBank.riskLimit){\n            revert();\n        }\n        //syndicate loan with other banks\n        sortBanksWithRiskLimit();\n        uint curr = adminBank.riskLimit;\n            \n        for(uint i = 1;i < counter;i++){\n            //also need to store participating banks\n            banks[i].isParticipating = true;\n            curr += banks[i].riskLimit;\n                \n            if(curr >= borrower.loanAmount)\n                break;\n        }\n        //startTime = block.timestamp;\n        stage = Stage.Vote;  \n    }\n    \n    function sortBanksWithRiskLimit() private{\n        for(uint i = 1;i < counter-1;i++){\n            for(uint j = 1;j < counter-i-1;j++){\n                if(banks[j].riskLimit > banks[i].riskLimit){\n                    temp1 = banks[j];\n                    banks[j] = banks[i];\n                    banks[i] = temp1;\n                }\n            }\n        }\n    }\n    \n    function getBorrower() public view returns(Borrower memory) {\n        return borrower;\n    }\n\n    function getStage() public view returns(Stage) {\n        return stage;\n    }\n\n    function getAdminBank() public view returns(Bank memory) {\n        return adminBank;\n    }\n\n    function getAllBankDetails() public view returns(Bank[] memory) {\n        Bank[] memory temp = new Bank[](counter);\n        for(uint i = 0;i < counter;i++){\n            temp[i] = banks[i];\n        }\n        return temp;\n    }\n\n    function getProposal() public view returns(Proposal[] memory) {\n        Proposal[] memory temp = new Proposal[](counter);\n        for(uint i = 0;i < counter;i++){\n            temp[i] = proposals[i];\n        }\n        return temp;\n    }\n\n    /// Give a single vote to proposal $(toProposal).\n    function vote(uint256 toProposal) public validStage(Stage.Vote)  {\n       // if (stage != Stage.Vote) {return;}\n        Bank storage sender = bankDetails[msg.sender];\n        if (sender.voted || toProposal >= proposals.length || proposals[toProposal].addr == msg.sender) \n            revert();\n        sender.voted = true;\n        sender.vote = toProposal;   \n        proposals[toProposal].voteCount += sender.weight;\n        if(msg.sender == adminBank.addr)\n            adminBank.vote = toProposal;\n        if(check()) {\n            stage = Stage.Done;\n            emit votingCompleted();    \n        }\n    }\n\n    function check() private view returns (bool) {\n        for(uint i = 0;i < counter;i++){\n            if(!bankDetails[banks[i].addr].voted)\n                return false;\n        }\n        return true;\n    }\n\n    function winningProposal() public validStage(Stage.Done) onlyAdmin {\n       //if(stage != Stage.Done) {return;}\n        for (uint8 prop = 0; prop < proposals.length; prop++)\n            if (proposals[prop].voteCount > winningVoteCount) {\n                winningVoteCount = proposals[prop].voteCount;\n                _winningProposal = prop;\n            }\n            else if (proposals[prop].voteCount == winningVoteCount && proposals[prop].voteCount!=0) {\n                _winningProposal = adminBank.vote;\n                break;\n            }\n       assert (winningVoteCount > 0);\n       stage = Stage.Report;\n       //return _winningProposal;\n    }\n\n    function getWinningProposal() public view onlyAdmin returns(uint256)  {\n        return _winningProposal;\n    }\n\n    // function validateAmount(uint256 amount) return (bool){\n        \n    // }\n    \n    \n}",
  "sourcePath": "/mnt/d/VIT/3rd year/1st Sem/Parallel and distributed computing/J component/project3/contracts/SyndicateLoan.sol",
  "compiler": {
    "name": "solc",
    "version": "0.8.10+commit.fc410830.Emscripten.clang"
  },
  "schemaVersion": "3.4.3",
  "updatedAt": "2021-12-01T14:49:21.472Z",
  "networkType": "ethereum",
  "devdoc": {
    "kind": "dev",
    "methods": {},
    "version": 1
  },
  "userdoc": {
    "kind": "user",
    "methods": {
      "vote(uint256)": {
        "notice": "Give a single vote to proposal $(toProposal)."
      }
    },
    "version": 1
  }
}